{
  "_format": "hh-sol-artifact-1",
  "contractName": "WiseSaying",
  "sourceName": "contracts/WiseSaying.sol",
  "abi": [
    {
      "inputs": [],
      "stateMutability": "nonpayable",
      "type": "constructor"
    },
    {
      "anonymous": false,
      "inputs": [
        {
          "indexed": true,
          "internalType": "address",
          "name": "owner",
          "type": "address"
        },
        {
          "indexed": true,
          "internalType": "address",
          "name": "approved",
          "type": "address"
        },
        {
          "indexed": true,
          "internalType": "uint256",
          "name": "tokenId",
          "type": "uint256"
        }
      ],
      "name": "Approval",
      "type": "event"
    },
    {
      "anonymous": false,
      "inputs": [
        {
          "indexed": true,
          "internalType": "address",
          "name": "owner",
          "type": "address"
        },
        {
          "indexed": true,
          "internalType": "address",
          "name": "operator",
          "type": "address"
        },
        {
          "indexed": false,
          "internalType": "bool",
          "name": "approved",
          "type": "bool"
        }
      ],
      "name": "ApprovalForAll",
      "type": "event"
    },
    {
      "anonymous": false,
      "inputs": [
        {
          "indexed": true,
          "internalType": "address",
          "name": "previousOwner",
          "type": "address"
        },
        {
          "indexed": true,
          "internalType": "address",
          "name": "newOwner",
          "type": "address"
        }
      ],
      "name": "OwnershipTransferred",
      "type": "event"
    },
    {
      "anonymous": false,
      "inputs": [
        {
          "indexed": true,
          "internalType": "address",
          "name": "from",
          "type": "address"
        },
        {
          "indexed": true,
          "internalType": "address",
          "name": "to",
          "type": "address"
        },
        {
          "indexed": true,
          "internalType": "uint256",
          "name": "tokenId",
          "type": "uint256"
        }
      ],
      "name": "Transfer",
      "type": "event"
    },
    {
      "inputs": [
        {
          "internalType": "address",
          "name": "to",
          "type": "address"
        },
        {
          "internalType": "uint256",
          "name": "tokenId",
          "type": "uint256"
        }
      ],
      "name": "approve",
      "outputs": [],
      "stateMutability": "nonpayable",
      "type": "function"
    },
    {
      "inputs": [
        {
          "internalType": "address",
          "name": "owner",
          "type": "address"
        }
      ],
      "name": "balanceOf",
      "outputs": [
        {
          "internalType": "uint256",
          "name": "",
          "type": "uint256"
        }
      ],
      "stateMutability": "view",
      "type": "function"
    },
    {
      "inputs": [
        {
          "internalType": "uint256",
          "name": "tokenId",
          "type": "uint256"
        }
      ],
      "name": "burn",
      "outputs": [],
      "stateMutability": "nonpayable",
      "type": "function"
    },
    {
      "inputs": [
        {
          "internalType": "uint256",
          "name": "tokenId",
          "type": "uint256"
        }
      ],
      "name": "generateAsset",
      "outputs": [
        {
          "internalType": "string",
          "name": "",
          "type": "string"
        }
      ],
      "stateMutability": "view",
      "type": "function"
    },
    {
      "inputs": [
        {
          "internalType": "uint256",
          "name": "tokenId",
          "type": "uint256"
        }
      ],
      "name": "getApproved",
      "outputs": [
        {
          "internalType": "address",
          "name": "",
          "type": "address"
        }
      ],
      "stateMutability": "view",
      "type": "function"
    },
    {
      "inputs": [
        {
          "internalType": "address",
          "name": "owner",
          "type": "address"
        },
        {
          "internalType": "address",
          "name": "operator",
          "type": "address"
        }
      ],
      "name": "isApprovedForAll",
      "outputs": [
        {
          "internalType": "bool",
          "name": "",
          "type": "bool"
        }
      ],
      "stateMutability": "view",
      "type": "function"
    },
    {
      "inputs": [],
      "name": "name",
      "outputs": [
        {
          "internalType": "string",
          "name": "",
          "type": "string"
        }
      ],
      "stateMutability": "view",
      "type": "function"
    },
    {
      "inputs": [],
      "name": "owner",
      "outputs": [
        {
          "internalType": "address",
          "name": "",
          "type": "address"
        }
      ],
      "stateMutability": "view",
      "type": "function"
    },
    {
      "inputs": [
        {
          "internalType": "uint256",
          "name": "tokenId",
          "type": "uint256"
        }
      ],
      "name": "ownerOf",
      "outputs": [
        {
          "internalType": "address",
          "name": "",
          "type": "address"
        }
      ],
      "stateMutability": "view",
      "type": "function"
    },
    {
      "inputs": [
        {
          "internalType": "uint256",
          "name": "number",
          "type": "uint256"
        }
      ],
      "name": "random",
      "outputs": [
        {
          "internalType": "uint256",
          "name": "",
          "type": "uint256"
        }
      ],
      "stateMutability": "view",
      "type": "function"
    },
    {
      "inputs": [],
      "name": "renounceOwnership",
      "outputs": [],
      "stateMutability": "nonpayable",
      "type": "function"
    },
    {
      "inputs": [
        {
          "internalType": "address",
          "name": "to",
          "type": "address"
        }
      ],
      "name": "safeMint",
      "outputs": [],
      "stateMutability": "nonpayable",
      "type": "function"
    },
    {
      "inputs": [
        {
          "internalType": "address",
          "name": "from",
          "type": "address"
        },
        {
          "internalType": "address",
          "name": "to",
          "type": "address"
        },
        {
          "internalType": "uint256",
          "name": "tokenId",
          "type": "uint256"
        }
      ],
      "name": "safeTransferFrom",
      "outputs": [],
      "stateMutability": "nonpayable",
      "type": "function"
    },
    {
      "inputs": [
        {
          "internalType": "address",
          "name": "from",
          "type": "address"
        },
        {
          "internalType": "address",
          "name": "to",
          "type": "address"
        },
        {
          "internalType": "uint256",
          "name": "tokenId",
          "type": "uint256"
        },
        {
          "internalType": "bytes",
          "name": "data",
          "type": "bytes"
        }
      ],
      "name": "safeTransferFrom",
      "outputs": [],
      "stateMutability": "nonpayable",
      "type": "function"
    },
    {
      "inputs": [
        {
          "internalType": "address",
          "name": "operator",
          "type": "address"
        },
        {
          "internalType": "bool",
          "name": "approved",
          "type": "bool"
        }
      ],
      "name": "setApprovalForAll",
      "outputs": [],
      "stateMutability": "nonpayable",
      "type": "function"
    },
    {
      "inputs": [
        {
          "internalType": "bytes4",
          "name": "interfaceId",
          "type": "bytes4"
        }
      ],
      "name": "supportsInterface",
      "outputs": [
        {
          "internalType": "bool",
          "name": "",
          "type": "bool"
        }
      ],
      "stateMutability": "view",
      "type": "function"
    },
    {
      "inputs": [],
      "name": "symbol",
      "outputs": [
        {
          "internalType": "string",
          "name": "",
          "type": "string"
        }
      ],
      "stateMutability": "view",
      "type": "function"
    },
    {
      "inputs": [
        {
          "internalType": "uint256",
          "name": "index",
          "type": "uint256"
        }
      ],
      "name": "tokenByIndex",
      "outputs": [
        {
          "internalType": "uint256",
          "name": "",
          "type": "uint256"
        }
      ],
      "stateMutability": "view",
      "type": "function"
    },
    {
      "inputs": [
        {
          "internalType": "address",
          "name": "owner",
          "type": "address"
        },
        {
          "internalType": "uint256",
          "name": "index",
          "type": "uint256"
        }
      ],
      "name": "tokenOfOwnerByIndex",
      "outputs": [
        {
          "internalType": "uint256",
          "name": "",
          "type": "uint256"
        }
      ],
      "stateMutability": "view",
      "type": "function"
    },
    {
      "inputs": [
        {
          "internalType": "uint256",
          "name": "tokenId",
          "type": "uint256"
        }
      ],
      "name": "tokenURI",
      "outputs": [
        {
          "internalType": "string",
          "name": "",
          "type": "string"
        }
      ],
      "stateMutability": "view",
      "type": "function"
    },
    {
      "inputs": [],
      "name": "totalSupply",
      "outputs": [
        {
          "internalType": "uint256",
          "name": "",
          "type": "uint256"
        }
      ],
      "stateMutability": "view",
      "type": "function"
    },
    {
      "inputs": [
        {
          "internalType": "address",
          "name": "from",
          "type": "address"
        },
        {
          "internalType": "address",
          "name": "to",
          "type": "address"
        },
        {
          "internalType": "uint256",
          "name": "tokenId",
          "type": "uint256"
        }
      ],
      "name": "transferFrom",
      "outputs": [],
      "stateMutability": "nonpayable",
      "type": "function"
    },
    {
      "inputs": [
        {
          "internalType": "address",
          "name": "newOwner",
          "type": "address"
        }
      ],
      "name": "transferOwnership",
      "outputs": [],
      "stateMutability": "nonpayable",
      "type": "function"
    }
  ],
  "bytecode": "0x608060405260405180606001604052806040518060400160405280600781526020017f57454c434f4d450000000000000000000000000000000000000000000000000081525081526020016040518060400160405280600581526020017f475245454e00000000000000000000000000000000000000000000000000000081525081526020016040518060400160405280600481526020017f474f4c4400000000000000000000000000000000000000000000000000000000815250815250600c906003620000d09291906200063f565b506040518061014001604052806040518060400160405280601b81526020017f4a75737469636520697320747275746820696e20616374696f6e2e000000000081525081526020016040518060800160405280604881526020016200591c604891398152602001604051806080016040528060418152602001620058db604191398152602001604051806080016040528060468152602001620058296046913981526020016040518060600160405280603281526020016200586f603291398152602001604051806080016040528060458152602001620059ad6045913981526020016040518060600160405280603a8152602001620058a1603a913981526020016040518060a00160405280607d815260200162005a29607d9139815260200160405180608001604052806049815260200162005964604991398152602001604051806060016040528060378152602001620059f260379139815250600d90600a6200023f9291906200069f565b506040518061014001604052806040518060400160405280601181526020017f42656e6a616d696e204469737261656c6900000000000000000000000000000081525081526020016040518060400160405280600e81526020017f436f6c696e20522e20446176697300000000000000000000000000000000000081525081526020016040518060400160405280600f81526020017f4865726d616e204d656c76696c6c65000000000000000000000000000000000081525081526020016040518060400160405280601181526020017f57696e73746f6e20436875726368696c6c00000000000000000000000000000081525081526020016040518060400160405280601281526020017f4d69636861656c204a6f686e20426f62616b000000000000000000000000000081525081526020016040518060400160405280601381526020017f48656e72792044617669642054686f726561750000000000000000000000000081525081526020016040518060400160405280600b81526020017f57616c74204469736e657900000000000000000000000000000000000000000081525081526020016040518060400160405280601181526020017f416c6265727420536368776569747a657200000000000000000000000000000081525081526020016040518060400160405280600d81526020017f436f6e7261642048696c746f6e0000000000000000000000000000000000000081525081526020016040518060400160405280601181526020017f4e696b6f73204b617a616e747a616b6973000000000000000000000000000000815250815250600e90600a620004aa9291906200069f565b50348015620004b857600080fd5b506040518060400160405280601081526020017f5769736520536179696e672043617264000000000000000000000000000000008152506040518060400160405280600381526020017f5753430000000000000000000000000000000000000000000000000000000000815250816000908162000536919062000a06565b50806001908162000548919062000a06565b5050506200056b6200055f6200057160201b60201c565b6200057960201b60201c565b62000aed565b600033905090565b6000600a60009054906101000a900473ffffffffffffffffffffffffffffffffffffffff16905081600a60006101000a81548173ffffffffffffffffffffffffffffffffffffffff021916908373ffffffffffffffffffffffffffffffffffffffff1602179055508173ffffffffffffffffffffffffffffffffffffffff168173ffffffffffffffffffffffffffffffffffffffff167f8be0079c531659141344cd1fd0a4f28419497f9722a3daafe3b4186f6b6457e060405160405180910390a35050565b8280548282559060005260206000209081019282156200068c579160200282015b828111156200068b5782518290816200067a919062000a06565b509160200191906001019062000660565b5b5090506200069b9190620006ff565b5090565b828054828255906000526020600020908101928215620006ec579160200282015b82811115620006eb578251829081620006da919062000a06565b5091602001919060010190620006c0565b5b509050620006fb9190620006ff565b5090565b5b8082111562000723576000818162000719919062000727565b5060010162000700565b5090565b5080546200073590620007f5565b6000825580601f106200074957506200076a565b601f0160209004906000526020600020908101906200076991906200076d565b5b50565b5b80821115620007885760008160009055506001016200076e565b5090565b600081519050919050565b7f4e487b7100000000000000000000000000000000000000000000000000000000600052604160045260246000fd5b7f4e487b7100000000000000000000000000000000000000000000000000000000600052602260045260246000fd5b600060028204905060018216806200080e57607f821691505b602082108103620008245762000823620007c6565b5b50919050565b60008190508160005260206000209050919050565b60006020601f8301049050919050565b600082821b905092915050565b6000600883026200088e7fffffffffffffffffffffffffffffffffffffffffffffffffffffffffffffffff826200084f565b6200089a86836200084f565b95508019841693508086168417925050509392505050565b6000819050919050565b6000819050919050565b6000620008e7620008e1620008db84620008b2565b620008bc565b620008b2565b9050919050565b6000819050919050565b6200090383620008c6565b6200091b6200091282620008ee565b8484546200085c565b825550505050565b600090565b6200093262000923565b6200093f818484620008f8565b505050565b5b8181101562000967576200095b60008262000928565b60018101905062000945565b5050565b601f821115620009b65762000980816200082a565b6200098b846200083f565b810160208510156200099b578190505b620009b3620009aa856200083f565b83018262000944565b50505b505050565b600082821c905092915050565b6000620009db60001984600802620009bb565b1980831691505092915050565b6000620009f68383620009c8565b9150826002028217905092915050565b62000a11826200078c565b67ffffffffffffffff81111562000a2d5762000a2c62000797565b5b62000a398254620007f5565b62000a468282856200096b565b600060209050601f83116001811462000a7e576000841562000a69578287015190505b62000a758582620009e8565b86555062000ae5565b601f19841662000a8e866200082a565b60005b8281101562000ab85784890151825560018201915060208501945060208101905062000a91565b8683101562000ad8578489015162000ad4601f891682620009c8565b8355505b6001600288020188555050505b505050505050565b614d2c8062000afd6000396000f3fe608060405234801561001057600080fd5b506004361061014c5760003560e01c80634f6ccce7116100c3578063a22cb4651161007c578063a22cb465146103af578063b863bd37146103cb578063b88d4fde146103fb578063c87b56dd14610417578063e985e9c514610447578063f2fde38b146104775761014c565b80634f6ccce7146102d95780636352211e1461030957806370a0823114610339578063715018a6146103695780638da5cb5b1461037357806395d89b41146103915761014c565b806318160ddd1161011557806318160ddd1461021b57806323b872dd146102395780632f745c591461025557806340d097c31461028557806342842e0e146102a157806342966c68146102bd5761014c565b8062241ecd1461015157806301ffc9a71461018157806306fdde03146101b1578063081812fc146101cf578063095ea7b3146101ff575b600080fd5b61016b60048036038101906101669190612b7b565b610493565b6040516101789190612c38565b60405180910390f35b61019b60048036038101906101969190612cb2565b6106ee565b6040516101a89190612cfa565b60405180910390f35b6101b9610700565b6040516101c69190612c38565b60405180910390f35b6101e960048036038101906101e49190612b7b565b610792565b6040516101f69190612d56565b60405180910390f35b61021960048036038101906102149190612d9d565b6107d8565b005b6102236108ef565b6040516102309190612dec565b60405180910390f35b610253600480360381019061024e9190612e07565b6108fc565b005b61026f600480360381019061026a9190612d9d565b61095c565b60405161027c9190612dec565b60405180910390f35b61029f600480360381019061029a9190612e5a565b610a01565b005b6102bb60048036038101906102b69190612e07565b610a38565b005b6102d760048036038101906102d29190612b7b565b610a58565b005b6102f360048036038101906102ee9190612b7b565b610ab4565b6040516103009190612dec565b60405180910390f35b610323600480360381019061031e9190612b7b565b610b25565b6040516103309190612d56565b60405180910390f35b610353600480360381019061034e9190612e5a565b610bab565b6040516103609190612dec565b60405180910390f35b610371610c62565b005b61037b610c76565b6040516103889190612d56565b60405180910390f35b610399610ca0565b6040516103a69190612c38565b60405180910390f35b6103c960048036038101906103c49190612eb3565b610d32565b005b6103e560048036038101906103e09190612b7b565b610d48565b6040516103f29190612dec565b60405180910390f35b61041560048036038101906104109190613028565b610d8a565b005b610431600480360381019061042c9190612b7b565b610dec565b60405161043e9190612c38565b60405180910390f35b610461600480360381019061045c91906130ab565b610e5d565b60405161046e9190612cfa565b60405180910390f35b610491600480360381019061048c9190612e5a565b610ef1565b005b60606000600f60008481526020019081526020016000206040518060600160405290816000820180546104c59061311a565b80601f01602080910402602001604051908101604052809291908181526020018280546104f19061311a565b801561053e5780601f106105135761010080835404028352916020019161053e565b820191906000526020600020905b81548152906001019060200180831161052157829003601f168201915b505050505081526020016001820180546105579061311a565b80601f01602080910402602001604051908101604052809291908181526020018280546105839061311a565b80156105d05780601f106105a5576101008083540402835291602001916105d0565b820191906000526020600020905b8154815290600101906020018083116105b357829003601f168201915b505050505081526020016002820180546105e99061311a565b80601f01602080910402602001604051908101604052809291908181526020018280546106159061311a565b80156106625780601f1061063757610100808354040283529160200191610662565b820191906000526020600020905b81548152906001019060200180831161064557829003601f168201915b50505050508152505090506000610677610700565b61067f610ca0565b61068886610f74565b8460000151856020015186604001516040516020016106ac9695949392919061392b565b60405160208183030381529060405290506106c681611042565b6040516020016106d69190613aed565b60405160208183030381529060405292505050919050565b60006106f9826111a5565b9050919050565b60606000805461070f9061311a565b80601f016020809104026020016040519081016040528092919081815260200182805461073b9061311a565b80156107885780601f1061075d57610100808354040283529160200191610788565b820191906000526020600020905b81548152906001019060200180831161076b57829003601f168201915b5050505050905090565b600061079d8261121f565b6004600083815260200190815260200160002060009054906101000a900473ffffffffffffffffffffffffffffffffffffffff169050919050565b60006107e382610b25565b90508073ffffffffffffffffffffffffffffffffffffffff168373ffffffffffffffffffffffffffffffffffffffff1603610853576040517f08c379a000000000000000000000000000000000000000000000000000000000815260040161084a90613b81565b60405180910390fd5b8073ffffffffffffffffffffffffffffffffffffffff1661087261126a565b73ffffffffffffffffffffffffffffffffffffffff1614806108a157506108a08161089b61126a565b610e5d565b5b6108e0576040517f08c379a00000000000000000000000000000000000000000000000000000000081526004016108d790613c13565b60405180910390fd5b6108ea8383611272565b505050565b6000600880549050905090565b61090d61090761126a565b8261132b565b61094c576040517f08c379a000000000000000000000000000000000000000000000000000000000815260040161094390613ca5565b60405180910390fd5b6109578383836113c0565b505050565b600061096783610bab565b82106109a8576040517f08c379a000000000000000000000000000000000000000000000000000000000815260040161099f90613d37565b60405180910390fd5b600660008473ffffffffffffffffffffffffffffffffffffffff1673ffffffffffffffffffffffffffffffffffffffff168152602001908152602001600020600083815260200190815260200160002054905092915050565b610a096116b9565b6000610a15600b611737565b9050610a21600b611745565b610a2b828261175b565b610a3481611779565b5050565b610a5383838360405180602001604052806000815250610d8a565b505050565b610a69610a6361126a565b8261132b565b610aa8576040517f08c379a0000000000000000000000000000000000000000000000000000000008152600401610a9f90613ca5565b60405180910390fd5b610ab181611ad7565b50565b6000610abe6108ef565b8210610aff576040517f08c379a0000000000000000000000000000000000000000000000000000000008152600401610af690613dc9565b60405180910390fd5b60088281548110610b1357610b12613de9565b5b90600052602060002001549050919050565b600080610b3183611c25565b9050600073ffffffffffffffffffffffffffffffffffffffff168173ffffffffffffffffffffffffffffffffffffffff1603610ba2576040517f08c379a0000000000000000000000000000000000000000000000000000000008152600401610b9990613e64565b60405180910390fd5b80915050919050565b60008073ffffffffffffffffffffffffffffffffffffffff168273ffffffffffffffffffffffffffffffffffffffff1603610c1b576040517f08c379a0000000000000000000000000000000000000000000000000000000008152600401610c1290613ef6565b60405180910390fd5b600360008373ffffffffffffffffffffffffffffffffffffffff1673ffffffffffffffffffffffffffffffffffffffff168152602001908152602001600020549050919050565b610c6a6116b9565b610c746000611c62565b565b6000600a60009054906101000a900473ffffffffffffffffffffffffffffffffffffffff16905090565b606060018054610caf9061311a565b80601f0160208091040260200160405190810160405280929190818152602001828054610cdb9061311a565b8015610d285780601f10610cfd57610100808354040283529160200191610d28565b820191906000526020600020905b815481529060010190602001808311610d0b57829003601f168201915b5050505050905090565b610d44610d3d61126a565b8383611d28565b5050565b600081424433604051602001610d6093929190613f7f565b6040516020818303038152906040528051906020012060001c610d839190613feb565b9050919050565b610d9b610d9561126a565b8361132b565b610dda576040517f08c379a0000000000000000000000000000000000000000000000000000000008152600401610dd190613ca5565b60405180910390fd5b610de684848484611e94565b50505050565b6060610df78261121f565b6000610e0283610f74565b610e0b84610493565b604051602001610e1c92919061427c565b6040516020818303038152906040529050610e3681611042565b604051602001610e469190614339565b604051602081830303815290604052915050919050565b6000600560008473ffffffffffffffffffffffffffffffffffffffff1673ffffffffffffffffffffffffffffffffffffffff16815260200190815260200160002060008373ffffffffffffffffffffffffffffffffffffffff1673ffffffffffffffffffffffffffffffffffffffff16815260200190815260200160002060009054906101000a900460ff16905092915050565b610ef96116b9565b600073ffffffffffffffffffffffffffffffffffffffff168173ffffffffffffffffffffffffffffffffffffffff1603610f68576040517f08c379a0000000000000000000000000000000000000000000000000000000008152600401610f5f906143cd565b60405180910390fd5b610f7181611c62565b50565b606060006001610f8384611ef0565b01905060008167ffffffffffffffff811115610fa257610fa1612efd565b5b6040519080825280601f01601f191660200182016040528015610fd45781602001600182028036833780820191505090505b509050600082602001820190505b600115611037578080600190039150507f3031323334353637383961626364656600000000000000000000000000000000600a86061a8153600a858161102b5761102a613fbc565b5b04945060008503610fe2575b819350505050919050565b60606000825103611064576040518060200160405280600081525090506111a0565b6000604051806060016040528060408152602001614cb76040913990506000600360028551611093919061441c565b61109d9190614450565b60046110a99190614481565b67ffffffffffffffff8111156110c2576110c1612efd565b5b6040519080825280601f01601f1916602001820160405280156110f45781602001600182028036833780820191505090505b509050600182016020820185865187015b80821015611160576003820191508151603f8160121c168501518453600184019350603f81600c1c168501518453600184019350603f8160061c168501518453600184019350603f8116850151845360018401935050611105565b505060038651066001811461117c576002811461118f57611197565b603d6001830353603d6002830353611197565b603d60018303535b50505080925050505b919050565b60007f780e9d63000000000000000000000000000000000000000000000000000000007bffffffffffffffffffffffffffffffffffffffffffffffffffffffff1916827bffffffffffffffffffffffffffffffffffffffffffffffffffffffff19161480611218575061121782612043565b5b9050919050565b61122881612125565b611267576040517f08c379a000000000000000000000000000000000000000000000000000000000815260040161125e90613e64565b60405180910390fd5b50565b600033905090565b816004600083815260200190815260200160002060006101000a81548173ffffffffffffffffffffffffffffffffffffffff021916908373ffffffffffffffffffffffffffffffffffffffff160217905550808273ffffffffffffffffffffffffffffffffffffffff166112e583610b25565b73ffffffffffffffffffffffffffffffffffffffff167f8c5be1e5ebec7d5bd14f71427d1e84f3dd0314c0f7b2291e5b200ac8c7c3b92560405160405180910390a45050565b60008061133783610b25565b90508073ffffffffffffffffffffffffffffffffffffffff168473ffffffffffffffffffffffffffffffffffffffff16148061137957506113788185610e5d565b5b806113b757508373ffffffffffffffffffffffffffffffffffffffff1661139f84610792565b73ffffffffffffffffffffffffffffffffffffffff16145b91505092915050565b8273ffffffffffffffffffffffffffffffffffffffff166113e082610b25565b73ffffffffffffffffffffffffffffffffffffffff1614611436576040517f08c379a000000000000000000000000000000000000000000000000000000000815260040161142d90614535565b60405180910390fd5b600073ffffffffffffffffffffffffffffffffffffffff168273ffffffffffffffffffffffffffffffffffffffff16036114a5576040517f08c379a000000000000000000000000000000000000000000000000000000000815260040161149c906145c7565b60405180910390fd5b6114b28383836001612166565b8273ffffffffffffffffffffffffffffffffffffffff166114d282610b25565b73ffffffffffffffffffffffffffffffffffffffff1614611528576040517f08c379a000000000000000000000000000000000000000000000000000000000815260040161151f90614535565b60405180910390fd5b6004600082815260200190815260200160002060006101000a81549073ffffffffffffffffffffffffffffffffffffffff02191690556001600360008573ffffffffffffffffffffffffffffffffffffffff1673ffffffffffffffffffffffffffffffffffffffff168152602001908152602001600020600082825403925050819055506001600360008473ffffffffffffffffffffffffffffffffffffffff1673ffffffffffffffffffffffffffffffffffffffff16815260200190815260200160002060008282540192505081905550816002600083815260200190815260200160002060006101000a81548173ffffffffffffffffffffffffffffffffffffffff021916908373ffffffffffffffffffffffffffffffffffffffff160217905550808273ffffffffffffffffffffffffffffffffffffffff168473ffffffffffffffffffffffffffffffffffffffff167fddf252ad1be2c89b69c2b068fc378daa952ba7f163c4a11628f55a4df523b3ef60405160405180910390a46116b48383836001612178565b505050565b6116c161126a565b73ffffffffffffffffffffffffffffffffffffffff166116df610c76565b73ffffffffffffffffffffffffffffffffffffffff1614611735576040517f08c379a000000000000000000000000000000000000000000000000000000000815260040161172c90614633565b60405180910390fd5b565b600081600001549050919050565b6001816000016000828254019250508190555050565b61177582826040518060200160405280600081525061217e565b5050565b6000611785600a610d48565b90506040518060600160405280600c6000815481106117a7576117a6613de9565b5b9060005260206000200180546117bc9061311a565b80601f01602080910402602001604051908101604052809291908181526020018280546117e89061311a565b80156118355780601f1061180a57610100808354040283529160200191611835565b820191906000526020600020905b81548152906001019060200180831161181857829003601f168201915b50505050508152602001600d838154811061185357611852613de9565b5b9060005260206000200180546118689061311a565b80601f01602080910402602001604051908101604052809291908181526020018280546118949061311a565b80156118e15780601f106118b6576101008083540402835291602001916118e1565b820191906000526020600020905b8154815290600101906020018083116118c457829003601f168201915b50505050508152602001600e83815481106118ff576118fe613de9565b5b9060005260206000200180546119149061311a565b80601f01602080910402602001604051908101604052809291908181526020018280546119409061311a565b801561198d5780601f106119625761010080835404028352916020019161198d565b820191906000526020600020905b81548152906001019060200180831161197057829003601f168201915b5050505050815250600f600084815260200190815260200160002060008201518160000190816119bd91906147ff565b5060208201518160010190816119d391906147ff565b5060408201518160020190816119e991906147ff565b50905050611ad36040518060400160405280600b81526020017f6772616465206973202573000000000000000000000000000000000000000000815250600c600081548110611a3b57611a3a613de9565b5b906000526020600020018054611a509061311a565b80601f0160208091040260200160405190810160405280929190818152602001828054611a7c9061311a565b8015611ac95780601f10611a9e57610100808354040283529160200191611ac9565b820191906000526020600020905b815481529060010190602001808311611aac57829003601f168201915b50505050506121d9565b5050565b6000611ae282610b25565b9050611af2816000846001612166565b611afb82610b25565b90506004600083815260200190815260200160002060006101000a81549073ffffffffffffffffffffffffffffffffffffffff02191690556001600360008373ffffffffffffffffffffffffffffffffffffffff1673ffffffffffffffffffffffffffffffffffffffff168152602001908152602001600020600082825403925050819055506002600083815260200190815260200160002060006101000a81549073ffffffffffffffffffffffffffffffffffffffff021916905581600073ffffffffffffffffffffffffffffffffffffffff168273ffffffffffffffffffffffffffffffffffffffff167fddf252ad1be2c89b69c2b068fc378daa952ba7f163c4a11628f55a4df523b3ef60405160405180910390a4611c21816000846001612178565b5050565b60006002600083815260200190815260200160002060009054906101000a900473ffffffffffffffffffffffffffffffffffffffff169050919050565b6000600a60009054906101000a900473ffffffffffffffffffffffffffffffffffffffff16905081600a60006101000a81548173ffffffffffffffffffffffffffffffffffffffff021916908373ffffffffffffffffffffffffffffffffffffffff1602179055508173ffffffffffffffffffffffffffffffffffffffff168173ffffffffffffffffffffffffffffffffffffffff167f8be0079c531659141344cd1fd0a4f28419497f9722a3daafe3b4186f6b6457e060405160405180910390a35050565b8173ffffffffffffffffffffffffffffffffffffffff168373ffffffffffffffffffffffffffffffffffffffff1603611d96576040517f08c379a0000000000000000000000000000000000000000000000000000000008152600401611d8d9061491d565b60405180910390fd5b80600560008573ffffffffffffffffffffffffffffffffffffffff1673ffffffffffffffffffffffffffffffffffffffff16815260200190815260200160002060008473ffffffffffffffffffffffffffffffffffffffff1673ffffffffffffffffffffffffffffffffffffffff16815260200190815260200160002060006101000a81548160ff0219169083151502179055508173ffffffffffffffffffffffffffffffffffffffff168373ffffffffffffffffffffffffffffffffffffffff167f17307eab39ab6107e8899845ad3d59bd9653f200f220920489ca2b5937696c3183604051611e879190612cfa565b60405180910390a3505050565b611e9f8484846113c0565b611eab84848484612275565b611eea576040517f08c379a0000000000000000000000000000000000000000000000000000000008152600401611ee1906149af565b60405180910390fd5b50505050565b600080600090507a184f03e93ff9f4daa797ed6e38ed64bf6a1f0100000000000000008310611f4e577a184f03e93ff9f4daa797ed6e38ed64bf6a1f0100000000000000008381611f4457611f43613fbc565b5b0492506040810190505b6d04ee2d6d415b85acef81000000008310611f8b576d04ee2d6d415b85acef81000000008381611f8157611f80613fbc565b5b0492506020810190505b662386f26fc100008310611fba57662386f26fc100008381611fb057611faf613fbc565b5b0492506010810190505b6305f5e1008310611fe3576305f5e1008381611fd957611fd8613fbc565b5b0492506008810190505b6127108310612008576127108381611ffe57611ffd613fbc565b5b0492506004810190505b6064831061202b576064838161202157612020613fbc565b5b0492506002810190505b600a831061203a576001810190505b80915050919050565b60007f80ac58cd000000000000000000000000000000000000000000000000000000007bffffffffffffffffffffffffffffffffffffffffffffffffffffffff1916827bffffffffffffffffffffffffffffffffffffffffffffffffffffffff1916148061210e57507f5b5e139f000000000000000000000000000000000000000000000000000000007bffffffffffffffffffffffffffffffffffffffffffffffffffffffff1916827bffffffffffffffffffffffffffffffffffffffffffffffffffffffff1916145b8061211e575061211d826123fc565b5b9050919050565b60008073ffffffffffffffffffffffffffffffffffffffff1661214783611c25565b73ffffffffffffffffffffffffffffffffffffffff1614159050919050565b61217284848484612466565b50505050565b50505050565b61218883836125c4565b6121956000848484612275565b6121d4576040517f08c379a00000000000000000000000000000000000000000000000000000000081526004016121cb906149af565b60405180910390fd5b505050565b61227182826040516024016121ef9291906149cf565b6040516020818303038152906040527f4b5c4277000000000000000000000000000000000000000000000000000000007bffffffffffffffffffffffffffffffffffffffffffffffffffffffff19166020820180517bffffffffffffffffffffffffffffffffffffffffffffffffffffffff83818316178352505050506127e1565b5050565b60006122968473ffffffffffffffffffffffffffffffffffffffff16612802565b156123ef578373ffffffffffffffffffffffffffffffffffffffff1663150b7a026122bf61126a565b8786866040518563ffffffff1660e01b81526004016122e19493929190614a5b565b6020604051808303816000875af192505050801561231d57506040513d601f19601f8201168201806040525081019061231a9190614abc565b60015b61239f573d806000811461234d576040519150601f19603f3d011682016040523d82523d6000602084013e612352565b606091505b506000815103612397576040517f08c379a000000000000000000000000000000000000000000000000000000000815260040161238e906149af565b60405180910390fd5b805181602001fd5b63150b7a0260e01b7bffffffffffffffffffffffffffffffffffffffffffffffffffffffff1916817bffffffffffffffffffffffffffffffffffffffffffffffffffffffff1916149150506123f4565b600190505b949350505050565b60007f01ffc9a7000000000000000000000000000000000000000000000000000000007bffffffffffffffffffffffffffffffffffffffffffffffffffffffff1916827bffffffffffffffffffffffffffffffffffffffffffffffffffffffff1916149050919050565b61247284848484612825565b60018111156124b6576040517f08c379a00000000000000000000000000000000000000000000000000000000081526004016124ad90614b5b565b60405180910390fd5b6000829050600073ffffffffffffffffffffffffffffffffffffffff168573ffffffffffffffffffffffffffffffffffffffff16036124fd576124f88161282b565b61253c565b8373ffffffffffffffffffffffffffffffffffffffff168573ffffffffffffffffffffffffffffffffffffffff161461253b5761253a8582612874565b5b5b600073ffffffffffffffffffffffffffffffffffffffff168473ffffffffffffffffffffffffffffffffffffffff160361257e57612579816129e1565b6125bd565b8473ffffffffffffffffffffffffffffffffffffffff168473ffffffffffffffffffffffffffffffffffffffff16146125bc576125bb8482612ab2565b5b5b5050505050565b600073ffffffffffffffffffffffffffffffffffffffff168273ffffffffffffffffffffffffffffffffffffffff1603612633576040517f08c379a000000000000000000000000000000000000000000000000000000000815260040161262a90614bc7565b60405180910390fd5b61263c81612125565b1561267c576040517f08c379a000000000000000000000000000000000000000000000000000000000815260040161267390614c33565b60405180910390fd5b61268a600083836001612166565b61269381612125565b156126d3576040517f08c379a00000000000000000000000000000000000000000000000000000000081526004016126ca90614c33565b60405180910390fd5b6001600360008473ffffffffffffffffffffffffffffffffffffffff1673ffffffffffffffffffffffffffffffffffffffff16815260200190815260200160002060008282540192505081905550816002600083815260200190815260200160002060006101000a81548173ffffffffffffffffffffffffffffffffffffffff021916908373ffffffffffffffffffffffffffffffffffffffff160217905550808273ffffffffffffffffffffffffffffffffffffffff16600073ffffffffffffffffffffffffffffffffffffffff167fddf252ad1be2c89b69c2b068fc378daa952ba7f163c4a11628f55a4df523b3ef60405160405180910390a46127dd600083836001612178565b5050565b60006a636f6e736f6c652e6c6f679050600080835160208501845afa505050565b6000808273ffffffffffffffffffffffffffffffffffffffff163b119050919050565b50505050565b6008805490506009600083815260200190815260200160002081905550600881908060018154018082558091505060019003906000526020600020016000909190919091505550565b6000600161288184610bab565b61288b9190614c53565b9050600060076000848152602001908152602001600020549050818114612970576000600660008673ffffffffffffffffffffffffffffffffffffffff1673ffffffffffffffffffffffffffffffffffffffff168152602001908152602001600020600084815260200190815260200160002054905080600660008773ffffffffffffffffffffffffffffffffffffffff1673ffffffffffffffffffffffffffffffffffffffff168152602001908152602001600020600084815260200190815260200160002081905550816007600083815260200190815260200160002081905550505b6007600084815260200190815260200160002060009055600660008573ffffffffffffffffffffffffffffffffffffffff1673ffffffffffffffffffffffffffffffffffffffff16815260200190815260200160002060008381526020019081526020016000206000905550505050565b600060016008805490506129f59190614c53565b9050600060096000848152602001908152602001600020549050600060088381548110612a2557612a24613de9565b5b906000526020600020015490508060088381548110612a4757612a46613de9565b5b906000526020600020018190555081600960008381526020019081526020016000208190555060096000858152602001908152602001600020600090556008805480612a9657612a95614c87565b5b6001900381819060005260206000200160009055905550505050565b6000612abd83610bab565b905081600660008573ffffffffffffffffffffffffffffffffffffffff1673ffffffffffffffffffffffffffffffffffffffff168152602001908152602001600020600083815260200190815260200160002081905550806007600084815260200190815260200160002081905550505050565b6000604051905090565b600080fd5b600080fd5b6000819050919050565b612b5881612b45565b8114612b6357600080fd5b50565b600081359050612b7581612b4f565b92915050565b600060208284031215612b9157612b90612b3b565b5b6000612b9f84828501612b66565b91505092915050565b600081519050919050565b600082825260208201905092915050565b60005b83811015612be2578082015181840152602081019050612bc7565b60008484015250505050565b6000601f19601f8301169050919050565b6000612c0a82612ba8565b612c148185612bb3565b9350612c24818560208601612bc4565b612c2d81612bee565b840191505092915050565b60006020820190508181036000830152612c528184612bff565b905092915050565b60007fffffffff0000000000000000000000000000000000000000000000000000000082169050919050565b612c8f81612c5a565b8114612c9a57600080fd5b50565b600081359050612cac81612c86565b92915050565b600060208284031215612cc857612cc7612b3b565b5b6000612cd684828501612c9d565b91505092915050565b60008115159050919050565b612cf481612cdf565b82525050565b6000602082019050612d0f6000830184612ceb565b92915050565b600073ffffffffffffffffffffffffffffffffffffffff82169050919050565b6000612d4082612d15565b9050919050565b612d5081612d35565b82525050565b6000602082019050612d6b6000830184612d47565b92915050565b612d7a81612d35565b8114612d8557600080fd5b50565b600081359050612d9781612d71565b92915050565b60008060408385031215612db457612db3612b3b565b5b6000612dc285828601612d88565b9250506020612dd385828601612b66565b9150509250929050565b612de681612b45565b82525050565b6000602082019050612e016000830184612ddd565b92915050565b600080600060608486031215612e2057612e1f612b3b565b5b6000612e2e86828701612d88565b9350506020612e3f86828701612d88565b9250506040612e5086828701612b66565b9150509250925092565b600060208284031215612e7057612e6f612b3b565b5b6000612e7e84828501612d88565b91505092915050565b612e9081612cdf565b8114612e9b57600080fd5b50565b600081359050612ead81612e87565b92915050565b60008060408385031215612eca57612ec9612b3b565b5b6000612ed885828601612d88565b9250506020612ee985828601612e9e565b9150509250929050565b600080fd5b600080fd5b7f4e487b7100000000000000000000000000000000000000000000000000000000600052604160045260246000fd5b612f3582612bee565b810181811067ffffffffffffffff82111715612f5457612f53612efd565b5b80604052505050565b6000612f67612b31565b9050612f738282612f2c565b919050565b600067ffffffffffffffff821115612f9357612f92612efd565b5b612f9c82612bee565b9050602081019050919050565b82818337600083830152505050565b6000612fcb612fc684612f78565b612f5d565b905082815260208101848484011115612fe757612fe6612ef8565b5b612ff2848285612fa9565b509392505050565b600082601f83011261300f5761300e612ef3565b5b813561301f848260208601612fb8565b91505092915050565b6000806000806080858703121561304257613041612b3b565b5b600061305087828801612d88565b945050602061306187828801612d88565b935050604061307287828801612b66565b925050606085013567ffffffffffffffff81111561309357613092612b40565b5b61309f87828801612ffa565b91505092959194509250565b600080604083850312156130c2576130c1612b3b565b5b60006130d085828601612d88565b92505060206130e185828601612d88565b9150509250929050565b7f4e487b7100000000000000000000000000000000000000000000000000000000600052602260045260246000fd5b6000600282049050600182168061313257607f821691505b602082108103613145576131446130eb565b5b50919050565b600081905092915050565b7f3c7374796c653e202e636172642d73696465207b6865696768743a203430307060008201527f783b626f726465722d7261646975733a20313070783b7472616e736974696f6e60208201527f3a2031733b6261636b666163652d7669736962696c6974793a2068696464656e60408201527f3b706f736974696f6e3a206162736f6c7574653b746f703a20303b6c6566743a60608201527f20303b77696474683a203330303b70616464696e673a203272656d3b6d61726760808201527f696e3a2032253b636f6c6f723a2023666666207d2e636172642d736964652e6260a08201527f61636b207b7472616e73666f726d3a20726f7461746559282d3138306465672960c08201527f3b6261636b67726f756e642d636f6c6f723a20233431353864303b6261636b6760e08201527f726f756e642d696d6167653a206c696e6561722d6772616469656e74283433646101008201527f65672c202334313538643020302c2023633835306330203436252c20236666636101208201527f633730203130302529207d2e636172642d736964652e66726f6e74207b6261636101408201527f6b67726f756e642d636f6c6f723a20233030393365393b6261636b67726f756e6101608201527f642d696d6167653a206c696e6561722d6772616469656e74283136306465672c6101808201527f202330303933653920302c2023383064306337203130302529207d2e636172646101a08201527f3a686f766572202e636172642d736964652e66726f6e74207b7472616e73666f6101c08201527f726d3a20726f74617465592831383064656729207d2e636172643a686f7665726101e08201527f202e636172642d736964652e6261636b207b7472616e73666f726d3a20726f746102008201527f61746559283029207d2e63656e746572207b746578742d616c69676e3a2063656102208201527f6e746572207d2e636f6e7461696e6572207b666f6e742d66616d696c793a20616102408201527f7269616c3b666f6e742d73697a653a20323070783b77696474683a20313030256102608201527f3b6865696768743a20313030253b706f736974696f6e3a2072656c61746976656102808201527f207d2e6368696c64207b77696474683a20313030253b706f736974696f6e3a206102a08201527f6162736f6c7574653b746f703a203530253b6d617267696e2d746f703a202d326102c08201527f357078207d3c2f7374796c653e000000000000000000000000000000000000006102e082015250565b60006135076102ed8361314b565b915061351282613156565b6102ed82019050919050565b7f3c64697620636c6173733d2263617264223e0000000000000000000000000000600082015250565b600061355460128361314b565b915061355f8261351e565b601282019050919050565b7f3c64697620636c6173733d22636172642d736964652066726f6e74223e000000600082015250565b60006135a0601d8361314b565b91506135ab8261356a565b601d82019050919050565b7f3c64697620636c6173733d22636f6e7461696e6572223e000000000000000000600082015250565b60006135ec60178361314b565b91506135f7826135b6565b601782019050919050565b7f3c6469763e000000000000000000000000000000000000000000000000000000600082015250565b600061363860058361314b565b915061364382613602565b600582019050919050565b7f26233132383634303b204e616d653a2000000000000000000000000000000000600082015250565b600061368460108361314b565b915061368f8261364e565b601082019050919050565b60006136a582612ba8565b6136af818561314b565b93506136bf818560208601612bc4565b80840191505092915050565b7f3c2f6469763e3c62723e00000000000000000000000000000000000000000000600082015250565b6000613701600a8361314b565b915061370c826136cb565b600a82019050919050565b7f26233132383038313b2053796d626f6c3a200000000000000000000000000000600082015250565b600061374d60128361314b565b915061375882613717565b601282019050919050565b7f26233132383135373b20546f6b656e49643a2023000000000000000000000000600082015250565b600061379960148361314b565b91506137a482613763565b601482019050919050565b7f26233132373837333b2047726164653a20000000000000000000000000000000600082015250565b60006137e560118361314b565b91506137f0826137af565b601182019050919050565b7f3c2f6469763e0000000000000000000000000000000000000000000000000000600082015250565b600061383160068361314b565b915061383c826137fb565b600682019050919050565b7f3c64697620636c6173733d22636172642d73696465206261636b223e00000000600082015250565b600061387d601c8361314b565b915061388882613847565b601c82019050919050565b7f3c64697620636c6173733d226368696c64223e00000000000000000000000000600082015250565b60006138c960138361314b565b91506138d482613893565b601382019050919050565b7f3c703e0000000000000000000000000000000000000000000000000000000000600082015250565b600061391560038361314b565b9150613920826138df565b600382019050919050565b6000613936826134f9565b915061394182613547565b915061394c82613593565b9150613957826135df565b91506139628261362b565b915061396d82613677565b9150613979828961369a565b9150613984826136f4565b915061398f8261362b565b915061399a82613740565b91506139a6828861369a565b91506139b1826136f4565b91506139bc8261362b565b91506139c78261378c565b91506139d3828761369a565b91506139de826136f4565b91506139e98261362b565b91506139f4826137d8565b9150613a00828661369a565b9150613a0b826136f4565b9150613a1682613824565b9150613a2182613824565b9150613a2c82613870565b9150613a37826135df565b9150613a42826138bc565b9150613a4e828561369a565b9150613a5982613908565b9150613a65828461369a565b9150613a7082613824565b9150613a7b82613824565b9150613a8682613824565b9150613a9182613824565b9150819050979650505050505050565b7f646174613a746578742f68746d6c3b6261736536342c00000000000000000000600082015250565b6000613ad760168361314b565b9150613ae282613aa1565b601682019050919050565b6000613af882613aca565b9150613b04828461369a565b915081905092915050565b7f4552433732313a20617070726f76616c20746f2063757272656e74206f776e6560008201527f7200000000000000000000000000000000000000000000000000000000000000602082015250565b6000613b6b602183612bb3565b9150613b7682613b0f565b604082019050919050565b60006020820190508181036000830152613b9a81613b5e565b9050919050565b7f4552433732313a20617070726f76652063616c6c6572206973206e6f7420746f60008201527f6b656e206f776e6572206f7220617070726f76656420666f7220616c6c000000602082015250565b6000613bfd603d83612bb3565b9150613c0882613ba1565b604082019050919050565b60006020820190508181036000830152613c2c81613bf0565b9050919050565b7f4552433732313a2063616c6c6572206973206e6f7420746f6b656e206f776e6560008201527f72206f7220617070726f76656400000000000000000000000000000000000000602082015250565b6000613c8f602d83612bb3565b9150613c9a82613c33565b604082019050919050565b60006020820190508181036000830152613cbe81613c82565b9050919050565b7f455243373231456e756d657261626c653a206f776e657220696e646578206f7560008201527f74206f6620626f756e6473000000000000000000000000000000000000000000602082015250565b6000613d21602b83612bb3565b9150613d2c82613cc5565b604082019050919050565b60006020820190508181036000830152613d5081613d14565b9050919050565b7f455243373231456e756d657261626c653a20676c6f62616c20696e646578206f60008201527f7574206f6620626f756e64730000000000000000000000000000000000000000602082015250565b6000613db3602c83612bb3565b9150613dbe82613d57565b604082019050919050565b60006020820190508181036000830152613de281613da6565b9050919050565b7f4e487b7100000000000000000000000000000000000000000000000000000000600052603260045260246000fd5b7f4552433732313a20696e76616c696420746f6b656e2049440000000000000000600082015250565b6000613e4e601883612bb3565b9150613e5982613e18565b602082019050919050565b60006020820190508181036000830152613e7d81613e41565b9050919050565b7f4552433732313a2061646472657373207a65726f206973206e6f74206120766160008201527f6c6964206f776e65720000000000000000000000000000000000000000000000602082015250565b6000613ee0602983612bb3565b9150613eeb82613e84565b604082019050919050565b60006020820190508181036000830152613f0f81613ed3565b9050919050565b6000819050919050565b613f31613f2c82612b45565b613f16565b82525050565b60008160601b9050919050565b6000613f4f82613f37565b9050919050565b6000613f6182613f44565b9050919050565b613f79613f7482612d35565b613f56565b82525050565b6000613f8b8286613f20565b602082019150613f9b8285613f20565b602082019150613fab8284613f68565b601482019150819050949350505050565b7f4e487b7100000000000000000000000000000000000000000000000000000000600052601260045260246000fd5b6000613ff682612b45565b915061400183612b45565b92508261401157614010613fbc565b5b828206905092915050565b7f7b00000000000000000000000000000000000000000000000000000000000000600082015250565b600061405260018361314b565b915061405d8261401c565b600182019050919050565b7f226e616d65223a20225769736520536179696e67204361726420230000000000600082015250565b600061409e601b8361314b565b91506140a982614068565b601b82019050919050565b7f222c000000000000000000000000000000000000000000000000000000000000600082015250565b60006140ea60028361314b565b91506140f5826140b4565b600282019050919050565b7f226465736372697074696f6e223a20225768656e20746865206361726420697360008201527f20666c69707065642c20697420697320616e204e46542063617264207468617460208201527f2063616e20636865636b2074686520736179696e672e222c0000000000000000604082015250565b600061418260588361314b565b915061418d82614100565b605882019050919050565b7f22696d616765223a202200000000000000000000000000000000000000000000600082015250565b60006141ce600a8361314b565b91506141d982614198565b600a82019050919050565b7f2200000000000000000000000000000000000000000000000000000000000000600082015250565b600061421a60018361314b565b9150614225826141e4565b600182019050919050565b7f7d00000000000000000000000000000000000000000000000000000000000000600082015250565b600061426660018361314b565b915061427182614230565b600182019050919050565b600061428782614045565b915061429282614091565b915061429e828561369a565b91506142a9826140dd565b91506142b482614175565b91506142bf826141c1565b91506142cb828461369a565b91506142d68261420d565b91506142e182614259565b91508190509392505050565b7f646174613a6170706c69636174696f6e2f6a736f6e3b6261736536342c000000600082015250565b6000614323601d8361314b565b915061432e826142ed565b601d82019050919050565b600061434482614316565b9150614350828461369a565b915081905092915050565b7f4f776e61626c653a206e6577206f776e657220697320746865207a65726f206160008201527f6464726573730000000000000000000000000000000000000000000000000000602082015250565b60006143b7602683612bb3565b91506143c28261435b565b604082019050919050565b600060208201905081810360008301526143e6816143aa565b9050919050565b7f4e487b7100000000000000000000000000000000000000000000000000000000600052601160045260246000fd5b600061442782612b45565b915061443283612b45565b925082820190508082111561444a576144496143ed565b5b92915050565b600061445b82612b45565b915061446683612b45565b92508261447657614475613fbc565b5b828204905092915050565b600061448c82612b45565b915061449783612b45565b92508282026144a581612b45565b915082820484148315176144bc576144bb6143ed565b5b5092915050565b7f4552433732313a207472616e736665722066726f6d20696e636f72726563742060008201527f6f776e6572000000000000000000000000000000000000000000000000000000602082015250565b600061451f602583612bb3565b915061452a826144c3565b604082019050919050565b6000602082019050818103600083015261454e81614512565b9050919050565b7f4552433732313a207472616e7366657220746f20746865207a65726f2061646460008201527f7265737300000000000000000000000000000000000000000000000000000000602082015250565b60006145b1602483612bb3565b91506145bc82614555565b604082019050919050565b600060208201905081810360008301526145e0816145a4565b9050919050565b7f4f776e61626c653a2063616c6c6572206973206e6f7420746865206f776e6572600082015250565b600061461d602083612bb3565b9150614628826145e7565b602082019050919050565b6000602082019050818103600083015261464c81614610565b9050919050565b60008190508160005260206000209050919050565b60006020601f8301049050919050565b600082821b905092915050565b6000600883026146b57fffffffffffffffffffffffffffffffffffffffffffffffffffffffffffffffff82614678565b6146bf8683614678565b95508019841693508086168417925050509392505050565b6000819050919050565b60006146fc6146f76146f284612b45565b6146d7565b612b45565b9050919050565b6000819050919050565b614716836146e1565b61472a61472282614703565b848454614685565b825550505050565b600090565b61473f614732565b61474a81848461470d565b505050565b5b8181101561476e57614763600082614737565b600181019050614750565b5050565b601f8211156147b35761478481614653565b61478d84614668565b8101602085101561479c578190505b6147b06147a885614668565b83018261474f565b50505b505050565b600082821c905092915050565b60006147d6600019846008026147b8565b1980831691505092915050565b60006147ef83836147c5565b9150826002028217905092915050565b61480882612ba8565b67ffffffffffffffff81111561482157614820612efd565b5b61482b825461311a565b614836828285614772565b600060209050601f8311600181146148695760008415614857578287015190505b61486185826147e3565b8655506148c9565b601f19841661487786614653565b60005b8281101561489f5784890151825560018201915060208501945060208101905061487a565b868310156148bc57848901516148b8601f8916826147c5565b8355505b6001600288020188555050505b505050505050565b7f4552433732313a20617070726f766520746f2063616c6c657200000000000000600082015250565b6000614907601983612bb3565b9150614912826148d1565b602082019050919050565b60006020820190508181036000830152614936816148fa565b9050919050565b7f4552433732313a207472616e7366657220746f206e6f6e20455243373231526560008201527f63656976657220696d706c656d656e7465720000000000000000000000000000602082015250565b6000614999603283612bb3565b91506149a48261493d565b604082019050919050565b600060208201905081810360008301526149c88161498c565b9050919050565b600060408201905081810360008301526149e98185612bff565b905081810360208301526149fd8184612bff565b90509392505050565b600081519050919050565b600082825260208201905092915050565b6000614a2d82614a06565b614a378185614a11565b9350614a47818560208601612bc4565b614a5081612bee565b840191505092915050565b6000608082019050614a706000830187612d47565b614a7d6020830186612d47565b614a8a6040830185612ddd565b8181036060830152614a9c8184614a22565b905095945050505050565b600081519050614ab681612c86565b92915050565b600060208284031215614ad257614ad1612b3b565b5b6000614ae084828501614aa7565b91505092915050565b7f455243373231456e756d657261626c653a20636f6e736563757469766520747260008201527f616e7366657273206e6f7420737570706f727465640000000000000000000000602082015250565b6000614b45603583612bb3565b9150614b5082614ae9565b604082019050919050565b60006020820190508181036000830152614b7481614b38565b9050919050565b7f4552433732313a206d696e7420746f20746865207a65726f2061646472657373600082015250565b6000614bb1602083612bb3565b9150614bbc82614b7b565b602082019050919050565b60006020820190508181036000830152614be081614ba4565b9050919050565b7f4552433732313a20746f6b656e20616c7265616479206d696e74656400000000600082015250565b6000614c1d601c83612bb3565b9150614c2882614be7565b602082019050919050565b60006020820190508181036000830152614c4c81614c10565b9050919050565b6000614c5e82612b45565b9150614c6983612b45565b9250828203905081811115614c8157614c806143ed565b5b92915050565b7f4e487b7100000000000000000000000000000000000000000000000000000000600052603160045260246000fdfe4142434445464748494a4b4c4d4e4f505152535455565758595a6162636465666768696a6b6c6d6e6f707172737475767778797a303132333435363738392b2fa26469706673582212203401ae41b34b1db49a5952643ba29f0f3c232441b74317aab3bcc3aa53d3e21e64736f6c63430008130033537563636573732069732077616c6b696e672066726f6d206661696c75726520746f206661696c7572652077697468206e6f206c6f7373206f6620656e746875736961736d2e416c6c2070726f67726573732074616b657320706c616365206f7574736964652074686520636f6d666f7274207a6f6e652e5468652077617920746f20676574207374617274656420697320746f20717569742074616c6b696e6720616e6420626567696e20646f696e672e49742069732062657474657220746f206661696c20696e206f726967696e616c697479207468616e20746f207375636365656420696e20696d69746174696f6e2e54686520726f616420746f207375636365737320616e642074686520726f616420746f206661696c7572652061726520616c6d6f73742065786163746c79207468652073616d652e53756363657373207365656d7320746f20626520636f6e6e6563746564207769746820616374696f6e2e205375636365737366756c2070656f706c65206b656570206d6f76696e672e5375636365737320757375616c6c7920636f6d657320746f2074686f73652077686f2061726520746f6f206275737920746f206265206c6f6f6b696e6720666f722069742e496e206f7264657220746f20737563636565642c207765206d7573742066697273742062656c6965766520746861742077652063616e2e53756363657373206973206e6f7420746865206b657920746f2068617070696e6573732e2048617070696e65737320697320746865206b657920746f20737563636573732e20496620796f75206c6f7665207768617420796f752061726520646f696e672c20796f752077696c6c206265207375636365737366756c2e",
  "linkReferences": {},
  "deployedLinkReferences": {}
}